{
  "contractName": "LoanAuction",
  "abi": [
    {
      "inputs": [],
      "stateMutability": "nonpayable",
      "type": "constructor"
    },
    {
      "anonymous": false,
      "inputs": [
        {
          "indexed": true,
          "internalType": "address",
          "name": "owner",
          "type": "address"
        },
        {
          "indexed": true,
          "internalType": "address",
          "name": "approved",
          "type": "address"
        },
        {
          "indexed": true,
          "internalType": "uint256",
          "name": "tokenId",
          "type": "uint256"
        }
      ],
      "name": "Approval",
      "type": "event"
    },
    {
      "anonymous": false,
      "inputs": [
        {
          "indexed": true,
          "internalType": "address",
          "name": "owner",
          "type": "address"
        },
        {
          "indexed": true,
          "internalType": "address",
          "name": "operator",
          "type": "address"
        },
        {
          "indexed": false,
          "internalType": "bool",
          "name": "approved",
          "type": "bool"
        }
      ],
      "name": "ApprovalForAll",
      "type": "event"
    },
    {
      "anonymous": false,
      "inputs": [
        {
          "indexed": false,
          "internalType": "address",
          "name": "bidder",
          "type": "address"
        },
        {
          "indexed": false,
          "internalType": "uint256",
          "name": "bid",
          "type": "uint256"
        },
        {
          "indexed": false,
          "internalType": "address",
          "name": "highestBidder",
          "type": "address"
        },
        {
          "indexed": false,
          "internalType": "uint256",
          "name": "highestBid",
          "type": "uint256"
        },
        {
          "indexed": false,
          "internalType": "uint256",
          "name": "highestBindingBid",
          "type": "uint256"
        }
      ],
      "name": "LogBid",
      "type": "event"
    },
    {
      "anonymous": false,
      "inputs": [],
      "name": "LogCanceled",
      "type": "event"
    },
    {
      "anonymous": false,
      "inputs": [
        {
          "indexed": false,
          "internalType": "address",
          "name": "withdrawer",
          "type": "address"
        },
        {
          "indexed": false,
          "internalType": "address",
          "name": "withdrawalAccount",
          "type": "address"
        },
        {
          "indexed": false,
          "internalType": "uint256",
          "name": "amount",
          "type": "uint256"
        }
      ],
      "name": "LogWithdrawal",
      "type": "event"
    },
    {
      "anonymous": false,
      "inputs": [
        {
          "indexed": true,
          "internalType": "address",
          "name": "from",
          "type": "address"
        },
        {
          "indexed": true,
          "internalType": "address",
          "name": "to",
          "type": "address"
        },
        {
          "indexed": true,
          "internalType": "uint256",
          "name": "tokenId",
          "type": "uint256"
        }
      ],
      "name": "Transfer",
      "type": "event"
    },
    {
      "inputs": [],
      "name": "_loanItemIds",
      "outputs": [
        {
          "internalType": "uint256",
          "name": "",
          "type": "uint256"
        }
      ],
      "stateMutability": "view",
      "type": "function"
    },
    {
      "inputs": [],
      "name": "_tokenIds",
      "outputs": [
        {
          "internalType": "uint256",
          "name": "",
          "type": "uint256"
        }
      ],
      "stateMutability": "view",
      "type": "function"
    },
    {
      "inputs": [
        {
          "internalType": "address",
          "name": "to",
          "type": "address"
        },
        {
          "internalType": "uint256",
          "name": "tokenId",
          "type": "uint256"
        }
      ],
      "name": "approve",
      "outputs": [],
      "stateMutability": "nonpayable",
      "type": "function"
    },
    {
      "inputs": [
        {
          "internalType": "address",
          "name": "owner",
          "type": "address"
        }
      ],
      "name": "balanceOf",
      "outputs": [
        {
          "internalType": "uint256",
          "name": "",
          "type": "uint256"
        }
      ],
      "stateMutability": "view",
      "type": "function"
    },
    {
      "inputs": [],
      "name": "baseURI",
      "outputs": [
        {
          "internalType": "string",
          "name": "",
          "type": "string"
        }
      ],
      "stateMutability": "view",
      "type": "function"
    },
    {
      "inputs": [
        {
          "internalType": "uint256",
          "name": "",
          "type": "uint256"
        }
      ],
      "name": "bid",
      "outputs": [
        {
          "internalType": "uint256",
          "name": "highestBindingBid",
          "type": "uint256"
        },
        {
          "internalType": "address payable",
          "name": "highestBidder",
          "type": "address"
        }
      ],
      "stateMutability": "view",
      "type": "function"
    },
    {
      "inputs": [],
      "name": "canceled",
      "outputs": [
        {
          "internalType": "bool",
          "name": "",
          "type": "bool"
        }
      ],
      "stateMutability": "view",
      "type": "function"
    },
    {
      "inputs": [
        {
          "internalType": "uint256",
          "name": "",
          "type": "uint256"
        },
        {
          "internalType": "address",
          "name": "",
          "type": "address"
        }
      ],
      "name": "fundsByBidder",
      "outputs": [
        {
          "internalType": "uint256",
          "name": "",
          "type": "uint256"
        }
      ],
      "stateMutability": "view",
      "type": "function"
    },
    {
      "inputs": [
        {
          "internalType": "uint256",
          "name": "tokenId",
          "type": "uint256"
        }
      ],
      "name": "getApproved",
      "outputs": [
        {
          "internalType": "address",
          "name": "",
          "type": "address"
        }
      ],
      "stateMutability": "view",
      "type": "function"
    },
    {
      "inputs": [
        {
          "internalType": "address",
          "name": "owner",
          "type": "address"
        },
        {
          "internalType": "address",
          "name": "operator",
          "type": "address"
        }
      ],
      "name": "isApprovedForAll",
      "outputs": [
        {
          "internalType": "bool",
          "name": "",
          "type": "bool"
        }
      ],
      "stateMutability": "view",
      "type": "function"
    },
    {
      "inputs": [],
      "name": "name",
      "outputs": [
        {
          "internalType": "string",
          "name": "",
          "type": "string"
        }
      ],
      "stateMutability": "view",
      "type": "function"
    },
    {
      "inputs": [],
      "name": "owner",
      "outputs": [
        {
          "internalType": "address",
          "name": "",
          "type": "address"
        }
      ],
      "stateMutability": "view",
      "type": "function"
    },
    {
      "inputs": [
        {
          "internalType": "uint256",
          "name": "tokenId",
          "type": "uint256"
        }
      ],
      "name": "ownerOf",
      "outputs": [
        {
          "internalType": "address",
          "name": "",
          "type": "address"
        }
      ],
      "stateMutability": "view",
      "type": "function"
    },
    {
      "inputs": [
        {
          "internalType": "address",
          "name": "from",
          "type": "address"
        },
        {
          "internalType": "address",
          "name": "to",
          "type": "address"
        },
        {
          "internalType": "uint256",
          "name": "tokenId",
          "type": "uint256"
        }
      ],
      "name": "safeTransferFrom",
      "outputs": [],
      "stateMutability": "nonpayable",
      "type": "function"
    },
    {
      "inputs": [
        {
          "internalType": "address",
          "name": "from",
          "type": "address"
        },
        {
          "internalType": "address",
          "name": "to",
          "type": "address"
        },
        {
          "internalType": "uint256",
          "name": "tokenId",
          "type": "uint256"
        },
        {
          "internalType": "bytes",
          "name": "_data",
          "type": "bytes"
        }
      ],
      "name": "safeTransferFrom",
      "outputs": [],
      "stateMutability": "nonpayable",
      "type": "function"
    },
    {
      "inputs": [
        {
          "internalType": "address",
          "name": "operator",
          "type": "address"
        },
        {
          "internalType": "bool",
          "name": "approved",
          "type": "bool"
        }
      ],
      "name": "setApprovalForAll",
      "outputs": [],
      "stateMutability": "nonpayable",
      "type": "function"
    },
    {
      "inputs": [
        {
          "internalType": "bytes4",
          "name": "interfaceId",
          "type": "bytes4"
        }
      ],
      "name": "supportsInterface",
      "outputs": [
        {
          "internalType": "bool",
          "name": "",
          "type": "bool"
        }
      ],
      "stateMutability": "view",
      "type": "function"
    },
    {
      "inputs": [],
      "name": "symbol",
      "outputs": [
        {
          "internalType": "string",
          "name": "",
          "type": "string"
        }
      ],
      "stateMutability": "view",
      "type": "function"
    },
    {
      "inputs": [
        {
          "internalType": "uint256",
          "name": "index",
          "type": "uint256"
        }
      ],
      "name": "tokenByIndex",
      "outputs": [
        {
          "internalType": "uint256",
          "name": "",
          "type": "uint256"
        }
      ],
      "stateMutability": "view",
      "type": "function"
    },
    {
      "inputs": [
        {
          "internalType": "address",
          "name": "owner",
          "type": "address"
        },
        {
          "internalType": "uint256",
          "name": "index",
          "type": "uint256"
        }
      ],
      "name": "tokenOfOwnerByIndex",
      "outputs": [
        {
          "internalType": "uint256",
          "name": "",
          "type": "uint256"
        }
      ],
      "stateMutability": "view",
      "type": "function"
    },
    {
      "inputs": [
        {
          "internalType": "uint256",
          "name": "tokenId",
          "type": "uint256"
        }
      ],
      "name": "tokenURI",
      "outputs": [
        {
          "internalType": "string",
          "name": "",
          "type": "string"
        }
      ],
      "stateMutability": "view",
      "type": "function"
    },
    {
      "inputs": [],
      "name": "totalSupply",
      "outputs": [
        {
          "internalType": "uint256",
          "name": "",
          "type": "uint256"
        }
      ],
      "stateMutability": "view",
      "type": "function"
    },
    {
      "inputs": [
        {
          "internalType": "address",
          "name": "from",
          "type": "address"
        },
        {
          "internalType": "address",
          "name": "to",
          "type": "address"
        },
        {
          "internalType": "uint256",
          "name": "tokenId",
          "type": "uint256"
        }
      ],
      "name": "transferFrom",
      "outputs": [],
      "stateMutability": "nonpayable",
      "type": "function"
    },
    {
      "inputs": [
        {
          "internalType": "uint256",
          "name": "price",
          "type": "uint256"
        },
        {
          "internalType": "string",
          "name": "tokenURI",
          "type": "string"
        },
        {
          "internalType": "uint256",
          "name": "_bidincrement",
          "type": "uint256"
        }
      ],
      "name": "addLoanItem",
      "outputs": [],
      "stateMutability": "nonpayable",
      "type": "function"
    },
    {
      "inputs": [
        {
          "internalType": "uint256",
          "name": "id",
          "type": "uint256"
        }
      ],
      "name": "getLoanItem",
      "outputs": [
        {
          "internalType": "uint256",
          "name": "",
          "type": "uint256"
        },
        {
          "internalType": "uint256",
          "name": "",
          "type": "uint256"
        },
        {
          "internalType": "string",
          "name": "",
          "type": "string"
        },
        {
          "internalType": "uint256",
          "name": "",
          "type": "uint256"
        }
      ],
      "stateMutability": "view",
      "type": "function"
    },
    {
      "inputs": [
        {
          "internalType": "uint256",
          "name": "id",
          "type": "uint256"
        }
      ],
      "name": "cancelAuction",
      "outputs": [
        {
          "internalType": "bool",
          "name": "success",
          "type": "bool"
        }
      ],
      "stateMutability": "payable",
      "type": "function"
    },
    {
      "inputs": [
        {
          "internalType": "uint256",
          "name": "id",
          "type": "uint256"
        }
      ],
      "name": "placeBid",
      "outputs": [
        {
          "internalType": "bool",
          "name": "success",
          "type": "bool"
        }
      ],
      "stateMutability": "payable",
      "type": "function"
    },
    {
      "inputs": [
        {
          "internalType": "uint256",
          "name": "id",
          "type": "uint256"
        }
      ],
      "name": "withdraw",
      "outputs": [
        {
          "internalType": "bool",
          "name": "success",
          "type": "bool"
        }
      ],
      "stateMutability": "payable",
      "type": "function"
    }
  ],
  "bytecode": "0x60806040526000601160006101000a81548160ff0219169083151502179055506000601160016101000a81548160ff0219169083151502179055503480156200004757600080fd5b506040518060400160405280600481526020017f44415254000000000000000000000000000000000000000000000000000000008152506040518060400160405280600381526020017f4152540000000000000000000000000000000000000000000000000000000000815250620000cc6301ffc9a760e01b6200018f60201b60201c565b8160069080519060200190620000e492919062000298565b508060079080519060200190620000fd92919062000298565b50620001166380ac58cd60e01b6200018f60201b60201c565b6200012e635b5e139f60e01b6200018f60201b60201c565b6200014663780e9d6360e01b6200018f60201b60201c565b505033600b60006101000a81548173ffffffffffffffffffffffffffffffffffffffff021916908373ffffffffffffffffffffffffffffffffffffffff1602179055506200034e565b63ffffffff60e01b817bffffffffffffffffffffffffffffffffffffffffffffffffffffffff191614156200022c576040517f08c379a000000000000000000000000000000000000000000000000000000000815260040180806020018281038252601c8152602001807f4552433136353a20696e76616c696420696e746572666163652069640000000081525060200191505060405180910390fd5b6001600080837bffffffffffffffffffffffffffffffffffffffffffffffffffffffff19167bffffffffffffffffffffffffffffffffffffffffffffffffffffffff1916815260200190815260200160002060006101000a81548160ff02191690831515021790555050565b828054600181600116156101000203166002900490600052602060002090601f016020900481019282620002d057600085556200031c565b82601f10620002eb57805160ff19168380011785556200031c565b828001600101855582156200031c579182015b828111156200031b578251825591602001919060010190620002fe565b5b5090506200032b91906200032f565b5090565b5b808211156200034a57600081600090555060010162000330565b5090565b6146be806200035e6000396000f3fe6080604052600436106101b75760003560e01c806361fda82a116100ec57806396b5a7551161008a578063aa46a40011610064578063aa46a40014610b87578063b88d4fde14610bb2578063c87b56dd14610cc4578063e985e9c514610d78576101b7565b806396b5a75514610aa25780639979ef4514610ae6578063a22cb46514610b2a576101b7565b806370a08231116100c657806370a0823114610890578063748ba474146108f55780638da5cb5b146109d157806395d89b4114610a12576101b7565b806361fda82a146106d25780636352211e1461079b5780636c0360eb14610800576101b7565b806326fe3065116101595780633f9942ff116101335780633f9942ff1461056f57806342842e0e1461059c578063454a2ab3146106175780634f6ccce714610683576101b7565b806326fe30651461044d5780632e1a7d4d146104bc5780632f745c5914610500576101b7565b8063081812fc11610195578063081812fc146102e7578063095ea7b31461034c57806318160ddd146103a757806323b872dd146103d2576101b7565b806301ffc9a7146101bc578063051520ac1461022c57806306fdde0314610257575b600080fd5b3480156101c857600080fd5b50610214600480360360208110156101df57600080fd5b8101908080357bffffffffffffffffffffffffffffffffffffffffffffffffffffffff19169060200190929190505050610dff565b60405180821515815260200191505060405180910390f35b34801561023857600080fd5b50610241610e66565b6040518082815260200191505060405180910390f35b34801561026357600080fd5b5061026c610e6c565b6040518080602001828103825283818151815260200191508051906020019080838360005b838110156102ac578082015181840152602081019050610291565b50505050905090810190601f1680156102d95780820380516001836020036101000a031916815260200191505b509250505060405180910390f35b3480156102f357600080fd5b506103206004803603602081101561030a57600080fd5b8101908080359060200190929190505050610f0e565b604051808273ffffffffffffffffffffffffffffffffffffffff16815260200191505060405180910390f35b34801561035857600080fd5b506103a56004803603604081101561036f57600080fd5b81019080803573ffffffffffffffffffffffffffffffffffffffff16906020019092919080359060200190929190505050610fa9565b005b3480156103b357600080fd5b506103bc6110ed565b6040518082815260200191505060405180910390f35b3480156103de57600080fd5b5061044b600480360360608110156103f557600080fd5b81019080803573ffffffffffffffffffffffffffffffffffffffff169060200190929190803573ffffffffffffffffffffffffffffffffffffffff169060200190929190803590602001909291905050506110fe565b005b34801561045957600080fd5b506104a66004803603604081101561047057600080fd5b8101908080359060200190929190803573ffffffffffffffffffffffffffffffffffffffff169060200190929190505050611174565b6040518082815260200191505060405180910390f35b6104e8600480360360208110156104d257600080fd5b8101908080359060200190929190505050611199565b60405180821515815260200191505060405180910390f35b34801561050c57600080fd5b506105596004803603604081101561052357600080fd5b81019080803573ffffffffffffffffffffffffffffffffffffffff169060200190929190803590602001909291905050506115ff565b6040518082815260200191505060405180910390f35b34801561057b57600080fd5b5061058461165a565b60405180821515815260200191505060405180910390f35b3480156105a857600080fd5b50610615600480360360608110156105bf57600080fd5b81019080803573ffffffffffffffffffffffffffffffffffffffff169060200190929190803573ffffffffffffffffffffffffffffffffffffffff1690602001909291908035906020019092919050505061166d565b005b34801561062357600080fd5b506106506004803603602081101561063a57600080fd5b810190808035906020019092919050505061168d565b604051808381526020018273ffffffffffffffffffffffffffffffffffffffff1681526020019250505060405180910390f35b34801561068f57600080fd5b506106bc600480360360208110156106a657600080fd5b81019080803590602001909291905050506116d1565b6040518082815260200191505060405180910390f35b3480156106de57600080fd5b5061070b600480360360208110156106f557600080fd5b81019080803590602001909291905050506116f4565b6040518085815260200184815260200180602001838152602001828103825284818151815260200191508051906020019080838360005b8381101561075d578082015181840152602081019050610742565b50505050905090810190601f16801561078a5780820380516001836020036101000a031916815260200191505b509550505050505060405180910390f35b3480156107a757600080fd5b506107d4600480360360208110156107be57600080fd5b810190808035906020019092919050505061198b565b604051808273ffffffffffffffffffffffffffffffffffffffff16815260200191505060405180910390f35b34801561080c57600080fd5b506108156119c2565b6040518080602001828103825283818151815260200191508051906020019080838360005b8381101561085557808201518184015260208101905061083a565b50505050905090810190601f1680156108825780820380516001836020036101000a031916815260200191505b509250505060405180910390f35b34801561089c57600080fd5b506108df600480360360208110156108b357600080fd5b81019080803573ffffffffffffffffffffffffffffffffffffffff169060200190929190505050611a64565b6040518082815260200191505060405180910390f35b34801561090157600080fd5b506109cf6004803603606081101561091857600080fd5b81019080803590602001909291908035906020019064010000000081111561093f57600080fd5b82018360208201111561095157600080fd5b8035906020019184600183028401116401000000008311171561097357600080fd5b91908080601f016020809104026020016040519081016040528093929190818152602001838380828437600081840152601f19601f82011690508083019250505050505050919291929080359060200190929190505050611b39565b005b3480156109dd57600080fd5b506109e6611cb7565b604051808273ffffffffffffffffffffffffffffffffffffffff16815260200191505060405180910390f35b348015610a1e57600080fd5b50610a27611cdd565b6040518080602001828103825283818151815260200191508051906020019080838360005b83811015610a67578082015181840152602081019050610a4c565b50505050905090810190601f168015610a945780820380516001836020036101000a031916815260200191505b509250505060405180910390f35b610ace60048036036020811015610ab857600080fd5b8101908080359060200190929190505050611d7f565b60405180821515815260200191505060405180910390f35b610b1260048036036020811015610afc57600080fd5b8101908080359060200190929190505050612206565b60405180821515815260200191505060405180910390f35b348015610b3657600080fd5b50610b8560048036036040811015610b4d57600080fd5b81019080803573ffffffffffffffffffffffffffffffffffffffff1690602001909291908035151590602001909291905050506129e3565b005b348015610b9357600080fd5b50610b9c612b99565b6040518082815260200191505060405180910390f35b348015610bbe57600080fd5b50610cc260048036036080811015610bd557600080fd5b81019080803573ffffffffffffffffffffffffffffffffffffffff169060200190929190803573ffffffffffffffffffffffffffffffffffffffff1690602001909291908035906020019092919080359060200190640100000000811115610c3c57600080fd5b820183602082011115610c4e57600080fd5b80359060200191846001830284011164010000000083111715610c7057600080fd5b91908080601f016020809104026020016040519081016040528093929190818152602001838380828437600081840152601f19601f820116905080830192505050505050509192919290505050612b9f565b005b348015610cd057600080fd5b50610cfd60048036036020811015610ce757600080fd5b8101908080359060200190929190505050612c17565b6040518080602001828103825283818151815260200191508051906020019080838360005b83811015610d3d578082015181840152602081019050610d22565b50505050905090810190601f168015610d6a5780820380516001836020036101000a031916815260200191505b509250505060405180910390f35b348015610d8457600080fd5b50610de760048036036040811015610d9b57600080fd5b81019080803573ffffffffffffffffffffffffffffffffffffffff169060200190929190803573ffffffffffffffffffffffffffffffffffffffff169060200190929190505050612f00565b60405180821515815260200191505060405180910390f35b6000806000837bffffffffffffffffffffffffffffffffffffffffffffffffffffffff19167bffffffffffffffffffffffffffffffffffffffffffffffffffffffff1916815260200190815260200160002060009054906101000a900460ff169050919050565b600d5481565b606060068054600181600116156101000203166002900480601f016020809104026020016040519081016040528092919081815260200182805460018160011615610100020316600290048015610f045780601f10610ed957610100808354040283529160200191610f04565b820191906000526020600020905b815481529060010190602001808311610ee757829003601f168201915b5050505050905090565b6000610f1982612f94565b610f6e576040517f08c379a000000000000000000000000000000000000000000000000000000000815260040180806020018281038252602c815260200180614587602c913960400191505060405180910390fd5b6004600083815260200190815260200160002060009054906101000a900473ffffffffffffffffffffffffffffffffffffffff169050919050565b6000610fb48261198b565b90508073ffffffffffffffffffffffffffffffffffffffff168373ffffffffffffffffffffffffffffffffffffffff16141561103b576040517f08c379a00000000000000000000000000000000000000000000000000000000081526004018080602001828103825260218152602001806146376021913960400191505060405180910390fd5b8073ffffffffffffffffffffffffffffffffffffffff1661105a612fb1565b73ffffffffffffffffffffffffffffffffffffffff161480611089575061108881611083612fb1565b612f00565b5b6110de576040517f08c379a00000000000000000000000000000000000000000000000000000000081526004018080602001828103825260388152602001806144da6038913960400191505060405180910390fd5b6110e88383612fb9565b505050565b60006110f96002613072565b905090565b61110f611109612fb1565b82613087565b611164576040517f08c379a00000000000000000000000000000000000000000000000000000000081526004018080602001828103825260318152602001806146586031913960400191505060405180910390fd5b61116f83838361317b565b505050565b600f602052816000526040600020602052806000526040600020600091509150505481565b6000816111a46142ed565b600a60008381526020019081526020016000206040518060a00160405290816000820160009054906101000a900473ffffffffffffffffffffffffffffffffffffffff1673ffffffffffffffffffffffffffffffffffffffff1673ffffffffffffffffffffffffffffffffffffffff16815260200160018201548152602001600282018054600181600116156101000203166002900480601f0160208091040260200160405190810160405280929190818152602001828054600181600116156101000203166002900480156112bb5780601f10611290576101008083540402835291602001916112bb565b820191906000526020600020905b81548152906001019060200180831161129e57829003601f168201915b505050505081526020016003820160009054906101000a900460ff161515151581526020016004820154815250509050806000015173ffffffffffffffffffffffffffffffffffffffff163373ffffffffffffffffffffffffffffffffffffffff16141561132857600080fd5b60011515600e60009054906101000a900460ff1615151461134857600080fd5b60011515601160009054906101000a900460ff1615151461136857600080fd5b60008060006010600088815260200190815260200160002090508060010160009054906101000a900473ffffffffffffffffffffffffffffffffffffffff1673ffffffffffffffffffffffffffffffffffffffff163373ffffffffffffffffffffffffffffffffffffffff16141561147d578060010160009054906101000a900473ffffffffffffffffffffffffffffffffffffffff169250600f600088815260200190815260200160002060008260010160009054906101000a900473ffffffffffffffffffffffffffffffffffffffff1673ffffffffffffffffffffffffffffffffffffffff1673ffffffffffffffffffffffffffffffffffffffff1681526020019081526020016000205491506114d4565b339250600f600088815260200190815260200160002060008473ffffffffffffffffffffffffffffffffffffffff1673ffffffffffffffffffffffffffffffffffffffff1681526020019081526020016000205491505b60008214156114e257600080fd5b81600f600089815260200190815260200160002060008573ffffffffffffffffffffffffffffffffffffffff1673ffffffffffffffffffffffffffffffffffffffff168152602001908152602001600020600082825403925050819055503373ffffffffffffffffffffffffffffffffffffffff166108fc839081150290604051600060405180830381858888f1935050505061157e57600080fd5b7f0ec497a8ae5b1ba29c60470ef651def995fac3deebbdcc56c47a4e5f51a4c2bd338484604051808473ffffffffffffffffffffffffffffffffffffffff1681526020018373ffffffffffffffffffffffffffffffffffffffff168152602001828152602001935050505060405180910390a1600195505050505050919050565b600061165282600160008673ffffffffffffffffffffffffffffffffffffffff1673ffffffffffffffffffffffffffffffffffffffff1681526020019081526020016000206133be90919063ffffffff16565b905092915050565b600e60009054906101000a900460ff1681565b61168883838360405180602001604052806000815250612b9f565b505050565b60106020528060005260406000206000915090508060000154908060010160009054906101000a900473ffffffffffffffffffffffffffffffffffffffff16905082565b6000806116e88360026133d890919063ffffffff16565b50905080915050919050565b6000806060600084600a600082815260200190815260200160002060030160009054906101000a900460ff16611792576040517f08c379a00000000000000000000000000000000000000000000000000000000081526004018080602001828103825260098152602001807f4e6f7420466f756e64000000000000000000000000000000000000000000000081525060200191505060405180910390fd5b61179a6142ed565b600a60008881526020019081526020016000206040518060a00160405290816000820160009054906101000a900473ffffffffffffffffffffffffffffffffffffffff1673ffffffffffffffffffffffffffffffffffffffff1673ffffffffffffffffffffffffffffffffffffffff16815260200160018201548152602001600282018054600181600116156101000203166002900480601f0160208091040260200160405190810160405280929190818152602001828054600181600116156101000203166002900480156118b15780601f10611886576101008083540402835291602001916118b1565b820191906000526020600020905b81548152906001019060200180831161189457829003601f168201915b505050505081526020016003820160009054906101000a900460ff1615151515815260200160048201548152505090506118e9614334565b60106000898152602001908152602001600020604051806040016040529081600082015481526020016001820160009054906101000a900473ffffffffffffffffffffffffffffffffffffffff1673ffffffffffffffffffffffffffffffffffffffff1673ffffffffffffffffffffffffffffffffffffffff168152505090508782602001518360400151836000015196509650965096505050509193509193565b60006119bb8260405180606001604052806029815260200161453c6029913960026134049092919063ffffffff16565b9050919050565b606060098054600181600116156101000203166002900480601f016020809104026020016040519081016040528092919081815260200182805460018160011615610100020316600290048015611a5a5780601f10611a2f57610100808354040283529160200191611a5a565b820191906000526020600020905b815481529060010190602001808311611a3d57829003601f168201915b5050505050905090565b60008073ffffffffffffffffffffffffffffffffffffffff168273ffffffffffffffffffffffffffffffffffffffff161415611aeb576040517f08c379a000000000000000000000000000000000000000000000000000000000815260040180806020018281038252602a815260200180614512602a913960400191505060405180910390fd5b611b32600160008473ffffffffffffffffffffffffffffffffffffffff1673ffffffffffffffffffffffffffffffffffffffff168152602001908152602001600020613423565b9050919050565b6000831015611bb0576040517f08c379a000000000000000000000000000000000000000000000000000000000815260040180806020018281038252601c8152602001807f50726963652063616e6e6f74206265206c65737373207468616e20300000000081525060200191505060405180910390fd5b600d600081548092919060010191905055506040518060a001604052803373ffffffffffffffffffffffffffffffffffffffff16815260200184815260200183815260200160011515815260200182815250600a6000600d54815260200190815260200160002060008201518160000160006101000a81548173ffffffffffffffffffffffffffffffffffffffff021916908373ffffffffffffffffffffffffffffffffffffffff160217905550602082015181600101556040820151816002019080519060200190611c84929190614364565b5060608201518160030160006101000a81548160ff02191690831515021790555060808201518160040155905050505050565b600b60009054906101000a900473ffffffffffffffffffffffffffffffffffffffff1681565b606060078054600181600116156101000203166002900480601f016020809104026020016040519081016040528092919081815260200182805460018160011615610100020316600290048015611d755780601f10611d4a57610100808354040283529160200191611d75565b820191906000526020600020905b815481529060010190602001808311611d5857829003601f168201915b5050505050905090565b600081611d8a6142ed565b600a60008381526020019081526020016000206040518060a00160405290816000820160009054906101000a900473ffffffffffffffffffffffffffffffffffffffff1673ffffffffffffffffffffffffffffffffffffffff1673ffffffffffffffffffffffffffffffffffffffff16815260200160018201548152602001600282018054600181600116156101000203166002900480601f016020809104026020016040519081016040528092919081815260200182805460018160011615610100020316600290048015611ea15780601f10611e7657610100808354040283529160200191611ea1565b820191906000526020600020905b815481529060010190602001808311611e8457829003601f168201915b505050505081526020016003820160009054906101000a900460ff161515151581526020016004820154815250509050806000015173ffffffffffffffffffffffffffffffffffffffff163373ffffffffffffffffffffffffffffffffffffffff1614611f0d57600080fd5b600e60009054906101000a900460ff1615611f2757600080fd5b6001600e60006101000a81548160ff02191690831515021790555060011515601160009054906101000a900460ff16151514156121cf57611f666142ed565b600a60008681526020019081526020016000206040518060a00160405290816000820160009054906101000a900473ffffffffffffffffffffffffffffffffffffffff1673ffffffffffffffffffffffffffffffffffffffff1673ffffffffffffffffffffffffffffffffffffffff16815260200160018201548152602001600282018054600181600116156101000203166002900480601f01602080910402602001604051908101604052809291908181526020018280546001816001161561010002031660029004801561207d5780601f106120525761010080835404028352916020019161207d565b820191906000526020600020905b81548152906001019060200180831161206057829003601f168201915b505050505081526020016003820160009054906101000a900460ff1615151515815260200160048201548152505090506000601060008781526020019081526020016000209050600c600081548092919060010191905055506120e233600c54613438565b6120f2600c548360400151613456565b60008160000154141561210457600080fd5b8060000154600f600088815260200190815260200160002060008360010160009054906101000a900473ffffffffffffffffffffffffffffffffffffffff1673ffffffffffffffffffffffffffffffffffffffff1673ffffffffffffffffffffffffffffffffffffffff168152602001908152602001600020600082825403925050819055503373ffffffffffffffffffffffffffffffffffffffff166108fc82600001549081150290604051600060405180830381858888f193505050506121cc57600080fd5b50505b7f462b6ca7f632601af1295aeb320851f50e8e630a309173f23535845ea4bfb3b960405160405180910390a1600192505050919050565b6000600e60009054906101000a900460ff161561222257600080fd5b8161222b6142ed565b600a60008381526020019081526020016000206040518060a00160405290816000820160009054906101000a900473ffffffffffffffffffffffffffffffffffffffff1673ffffffffffffffffffffffffffffffffffffffff1673ffffffffffffffffffffffffffffffffffffffff16815260200160018201548152602001600282018054600181600116156101000203166002900480601f0160208091040260200160405190810160405280929190818152602001828054600181600116156101000203166002900480156123425780601f1061231757610100808354040283529160200191612342565b820191906000526020600020905b81548152906001019060200180831161232557829003601f168201915b505050505081526020016003820160009054906101000a900460ff161515151581526020016004820154815250509050806000015173ffffffffffffffffffffffffffffffffffffffff163373ffffffffffffffffffffffffffffffffffffffff1614156123af57600080fd5b836123b86142ed565b600a60008381526020019081526020016000206040518060a00160405290816000820160009054906101000a900473ffffffffffffffffffffffffffffffffffffffff1673ffffffffffffffffffffffffffffffffffffffff1673ffffffffffffffffffffffffffffffffffffffff16815260200160018201548152602001600282018054600181600116156101000203166002900480601f0160208091040260200160405190810160405280929190818152602001828054600181600116156101000203166002900480156124cf5780601f106124a4576101008083540402835291602001916124cf565b820191906000526020600020905b8154815290600101906020018083116124b257829003601f168201915b505050505081526020016003820160009054906101000a900460ff161515151581526020016004820154815250509050806020015134101561251057600080fd5b600034141561251e57600080fd5b60006010600088815260200190815260200160002090506001601160006101000a81548160ff0219169083151502179055506125586142ed565b600a60008981526020019081526020016000206040518060a00160405290816000820160009054906101000a900473ffffffffffffffffffffffffffffffffffffffff1673ffffffffffffffffffffffffffffffffffffffff1673ffffffffffffffffffffffffffffffffffffffff16815260200160018201548152602001600282018054600181600116156101000203166002900480601f01602080910402602001604051908101604052809291908181526020018280546001816001161561010002031660029004801561266f5780601f106126445761010080835404028352916020019161266f565b820191906000526020600020905b81548152906001019060200180831161265257829003601f168201915b505050505081526020016003820160009054906101000a900460ff161515151581526020016004820154815250509050600034600f60008b815260200190815260200160002060003373ffffffffffffffffffffffffffffffffffffffff1673ffffffffffffffffffffffffffffffffffffffff168152602001908152602001600020540190508260000154811161270657600080fd5b6000600f60008b815260200190815260200160002060008560010160009054906101000a900473ffffffffffffffffffffffffffffffffffffffff1673ffffffffffffffffffffffffffffffffffffffff1673ffffffffffffffffffffffffffffffffffffffff16815260200190815260200160002054905081600f60008c815260200190815260200160002060003373ffffffffffffffffffffffffffffffffffffffff1673ffffffffffffffffffffffffffffffffffffffff1681526020019081526020016000208190555080821161280c57808360800151830111156127f757808460000181905550612807565b8260800151820184600001819055505b612927565b8360010160009054906101000a900473ffffffffffffffffffffffffffffffffffffffff1673ffffffffffffffffffffffffffffffffffffffff163373ffffffffffffffffffffffffffffffffffffffff161461292357338460010160006101000a81548173ffffffffffffffffffffffffffffffffffffffff021916908373ffffffffffffffffffffffffffffffffffffffff160217905550808360800151830111156129125760001515601160019054906101000a900460ff16151514156128de5780846000018190555061290d565b826080015183602001510184600001819055506001601160016101000a81548160ff0219169083151502179055505b612922565b8260800151820184600001819055505b5b8190505b7ff152f4ff5e488c55370a2d53925a55055228ebd8ec95bd0251bbb299e48786b033838660010160009054906101000a900473ffffffffffffffffffffffffffffffffffffffff16848860000154604051808673ffffffffffffffffffffffffffffffffffffffff1681526020018581526020018473ffffffffffffffffffffffffffffffffffffffff1681526020018381526020018281526020019550505050505060405180910390a1600198505050505050505050919050565b6129eb612fb1565b73ffffffffffffffffffffffffffffffffffffffff168273ffffffffffffffffffffffffffffffffffffffff161415612a8c576040517f08c379a00000000000000000000000000000000000000000000000000000000081526004018080602001828103825260198152602001807f4552433732313a20617070726f766520746f2063616c6c65720000000000000081525060200191505060405180910390fd5b8060056000612a99612fb1565b73ffffffffffffffffffffffffffffffffffffffff1673ffffffffffffffffffffffffffffffffffffffff16815260200190815260200160002060008473ffffffffffffffffffffffffffffffffffffffff1673ffffffffffffffffffffffffffffffffffffffff16815260200190815260200160002060006101000a81548160ff0219169083151502179055508173ffffffffffffffffffffffffffffffffffffffff16612b46612fb1565b73ffffffffffffffffffffffffffffffffffffffff167f17307eab39ab6107e8899845ad3d59bd9653f200f220920489ca2b5937696c318360405180821515815260200191505060405180910390a35050565b600c5481565b612bb0612baa612fb1565b83613087565b612c05576040517f08c379a00000000000000000000000000000000000000000000000000000000081526004018080602001828103825260318152602001806146586031913960400191505060405180910390fd5b612c11848484846134e0565b50505050565b6060612c2282612f94565b612c77576040517f08c379a000000000000000000000000000000000000000000000000000000000815260040180806020018281038252602f815260200180614608602f913960400191505060405180910390fd5b6060600860008481526020019081526020016000208054600181600116156101000203166002900480601f016020809104026020016040519081016040528092919081815260200182805460018160011615610100020316600290048015612d205780601f10612cf557610100808354040283529160200191612d20565b820191906000526020600020905b815481529060010190602001808311612d0357829003601f168201915b50505050509050600060098054600181600116156101000203166002900490501415612d4f5780915050612efb565b600081511115612e28576009816040516020018083805460018160011615610100020316600290048015612dba5780601f10612d98576101008083540402835291820191612dba565b820191906000526020600020905b815481529060010190602001808311612da6575b505082805190602001908083835b60208310612deb5780518252602082019150602081019050602083039250612dc8565b6001836020036101000a03801982511681845116808217855250505050505090500192505050604051602081830303815290604052915050612efb565b6009612e3384613552565b6040516020018083805460018160011615610100020316600290048015612e915780601f10612e6f576101008083540402835291820191612e91565b820191906000526020600020905b815481529060010190602001808311612e7d575b505082805190602001908083835b60208310612ec25780518252602082019150602081019050602083039250612e9f565b6001836020036101000a038019825116818451168082178552505050505050905001925050506040516020818303038152906040529150505b919050565b6000600560008473ffffffffffffffffffffffffffffffffffffffff1673ffffffffffffffffffffffffffffffffffffffff16815260200190815260200160002060008373ffffffffffffffffffffffffffffffffffffffff1673ffffffffffffffffffffffffffffffffffffffff16815260200190815260200160002060009054906101000a900460ff16905092915050565b6000612faa82600261369990919063ffffffff16565b9050919050565b600033905090565b816004600083815260200190815260200160002060006101000a81548173ffffffffffffffffffffffffffffffffffffffff021916908373ffffffffffffffffffffffffffffffffffffffff160217905550808273ffffffffffffffffffffffffffffffffffffffff1661302c8361198b565b73ffffffffffffffffffffffffffffffffffffffff167f8c5be1e5ebec7d5bd14f71427d1e84f3dd0314c0f7b2291e5b200ac8c7c3b92560405160405180910390a45050565b6000613080826000016136b3565b9050919050565b600061309282612f94565b6130e7576040517f08c379a000000000000000000000000000000000000000000000000000000000815260040180806020018281038252602c8152602001806144ae602c913960400191505060405180910390fd5b60006130f28361198b565b90508073ffffffffffffffffffffffffffffffffffffffff168473ffffffffffffffffffffffffffffffffffffffff16148061316157508373ffffffffffffffffffffffffffffffffffffffff1661314984610f0e565b73ffffffffffffffffffffffffffffffffffffffff16145b8061317257506131718185612f00565b5b91505092915050565b8273ffffffffffffffffffffffffffffffffffffffff1661319b8261198b565b73ffffffffffffffffffffffffffffffffffffffff1614613207576040517f08c379a00000000000000000000000000000000000000000000000000000000081526004018080602001828103825260298152602001806145df6029913960400191505060405180910390fd5b600073ffffffffffffffffffffffffffffffffffffffff168273ffffffffffffffffffffffffffffffffffffffff16141561328d576040517f08c379a00000000000000000000000000000000000000000000000000000000081526004018080602001828103825260248152602001806144646024913960400191505060405180910390fd5b6132988383836136c4565b6132a3600082612fb9565b6132f481600160008673ffffffffffffffffffffffffffffffffffffffff1673ffffffffffffffffffffffffffffffffffffffff1681526020019081526020016000206136c990919063ffffffff16565b5061334681600160008573ffffffffffffffffffffffffffffffffffffffff1673ffffffffffffffffffffffffffffffffffffffff1681526020019081526020016000206136e390919063ffffffff16565b5061335d818360026136fd9092919063ffffffff16565b50808273ffffffffffffffffffffffffffffffffffffffff168473ffffffffffffffffffffffffffffffffffffffff167fddf252ad1be2c89b69c2b068fc378daa952ba7f163c4a11628f55a4df523b3ef60405160405180910390a4505050565b60006133cd8360000183613732565b60001c905092915050565b6000806000806133eb86600001866137b5565b915091508160001c8160001c9350935050509250929050565b6000613417846000018460001b8461384e565b60001c90509392505050565b600061343182600001613944565b9050919050565b613452828260405180602001604052806000815250613955565b5050565b61345f82612f94565b6134b4576040517f08c379a000000000000000000000000000000000000000000000000000000000815260040180806020018281038252602c8152602001806145b3602c913960400191505060405180910390fd5b806008600084815260200190815260200160002090805190602001906134db929190614364565b505050565b6134eb84848461317b565b6134f7848484846139c6565b61354c576040517f08c379a00000000000000000000000000000000000000000000000000000000081526004018080602001828103825260328152602001806144326032913960400191505060405180910390fd5b50505050565b6060600082141561359a576040518060400160405280600181526020017f30000000000000000000000000000000000000000000000000000000000000008152509050613694565b600082905060005b600082146135c4578080600101915050600a82816135bc57fe5b0491506135a2565b60608167ffffffffffffffff811180156135dd57600080fd5b506040519080825280601f01601f1916602001820160405280156136105781602001600182028036833780820191505090505b50905060006001830390508593505b6000841461368c57600a848161363157fe5b0660300160f81b8282806001900393508151811061364b57fe5b60200101907effffffffffffffffffffffffffffffffffffffffffffffffffffffffffffff1916908160001a905350600a848161368457fe5b04935061361f565b819450505050505b919050565b60006136ab836000018360001b613bdf565b905092915050565b600081600001805490509050919050565b505050565b60006136db836000018360001b613c02565b905092915050565b60006136f5836000018360001b613cea565b905092915050565b6000613729846000018460001b8473ffffffffffffffffffffffffffffffffffffffff1660001b613d5a565b90509392505050565b600081836000018054905011613793576040517f08c379a00000000000000000000000000000000000000000000000000000000081526004018080602001828103825260228152602001806144106022913960400191505060405180910390fd5b8260000182815481106137a257fe5b9060005260206000200154905092915050565b60008082846000018054905011613817576040517f08c379a00000000000000000000000000000000000000000000000000000000081526004018080602001828103825260228152602001806145656022913960400191505060405180910390fd5b600084600001848154811061382857fe5b906000526020600020906002020190508060000154816001015492509250509250929050565b60008084600101600085815260200190815260200160002054905060008114158390613915576040517f08c379a00000000000000000000000000000000000000000000000000000000081526004018080602001828103825283818151815260200191508051906020019080838360005b838110156138da5780820151818401526020810190506138bf565b50505050905090810190601f1680156139075780820380516001836020036101000a031916815260200191505b509250505060405180910390fd5b5084600001600182038154811061392857fe5b9060005260206000209060020201600101549150509392505050565b600081600001805490509050919050565b61395f8383613e36565b61396c60008484846139c6565b6139c1576040517f08c379a00000000000000000000000000000000000000000000000000000000081526004018080602001828103825260328152602001806144326032913960400191505060405180910390fd5b505050565b60006139e78473ffffffffffffffffffffffffffffffffffffffff1661402a565b6139f45760019050613bd7565b6060613b5e63150b7a0260e01b613a09612fb1565b888787604051602401808573ffffffffffffffffffffffffffffffffffffffff1681526020018473ffffffffffffffffffffffffffffffffffffffff16815260200183815260200180602001828103825283818151815260200191508051906020019080838360005b83811015613a8d578082015181840152602081019050613a72565b50505050905090810190601f168015613aba5780820380516001836020036101000a031916815260200191505b5095505050505050604051602081830303815290604052907bffffffffffffffffffffffffffffffffffffffffffffffffffffffff19166020820180517bffffffffffffffffffffffffffffffffffffffffffffffffffffffff8381831617835250505050604051806060016040528060328152602001614432603291398773ffffffffffffffffffffffffffffffffffffffff1661403d9092919063ffffffff16565b90506000818060200190516020811015613b7757600080fd5b8101908080519060200190929190505050905063150b7a0260e01b7bffffffffffffffffffffffffffffffffffffffffffffffffffffffff1916817bffffffffffffffffffffffffffffffffffffffffffffffffffffffff191614925050505b949350505050565b600080836001016000848152602001908152602001600020541415905092915050565b60008083600101600084815260200190815260200160002054905060008114613cde5760006001820390506000600186600001805490500390506000866000018281548110613c4d57fe5b9060005260206000200154905080876000018481548110613c6a57fe5b9060005260206000200181905550600183018760010160008381526020019081526020016000208190555086600001805480613ca257fe5b60019003818190600052602060002001600090559055866001016000878152602001908152602001600020600090556001945050505050613ce4565b60009150505b92915050565b6000613cf68383614055565b613d4f578260000182908060018154018082558091505060019003906000526020600020016000909190919091505582600001805490508360010160008481526020019081526020016000208190555060019050613d54565b600090505b92915050565b6000808460010160008581526020019081526020016000205490506000811415613e0157846000016040518060400160405280868152602001858152509080600181540180825580915050600190039060005260206000209060020201600090919091909150600082015181600001556020820151816001015550508460000180549050856001016000868152602001908152602001600020819055506001915050613e2f565b82856000016001830381548110613e1457fe5b90600052602060002090600202016001018190555060009150505b9392505050565b600073ffffffffffffffffffffffffffffffffffffffff168273ffffffffffffffffffffffffffffffffffffffff161415613ed9576040517f08c379a00000000000000000000000000000000000000000000000000000000081526004018080602001828103825260208152602001807f4552433732313a206d696e7420746f20746865207a65726f206164647265737381525060200191505060405180910390fd5b613ee281612f94565b15613f55576040517f08c379a000000000000000000000000000000000000000000000000000000000815260040180806020018281038252601c8152602001807f4552433732313a20746f6b656e20616c7265616479206d696e7465640000000081525060200191505060405180910390fd5b613f61600083836136c4565b613fb281600160008573ffffffffffffffffffffffffffffffffffffffff1673ffffffffffffffffffffffffffffffffffffffff1681526020019081526020016000206136e390919063ffffffff16565b50613fc9818360026136fd9092919063ffffffff16565b50808273ffffffffffffffffffffffffffffffffffffffff16600073ffffffffffffffffffffffffffffffffffffffff167fddf252ad1be2c89b69c2b068fc378daa952ba7f163c4a11628f55a4df523b3ef60405160405180910390a45050565b600080823b905060008111915050919050565b606061404c8484600085614078565b90509392505050565b600080836001016000848152602001908152602001600020541415905092915050565b6060824710156140d3576040517f08c379a00000000000000000000000000000000000000000000000000000000081526004018080602001828103825260268152602001806144886026913960400191505060405180910390fd5b6140dc8561402a565b61414e576040517f08c379a000000000000000000000000000000000000000000000000000000000815260040180806020018281038252601d8152602001807f416464726573733a2063616c6c20746f206e6f6e2d636f6e747261637400000081525060200191505060405180910390fd5b600060608673ffffffffffffffffffffffffffffffffffffffff1685876040518082805190602001908083835b6020831061419e578051825260208201915060208101905060208303925061417b565b6001836020036101000a03801982511681845116808217855250505050505090500191505060006040518083038185875af1925050503d8060008114614200576040519150601f19603f3d011682016040523d82523d6000602084013e614205565b606091505b5091509150614215828286614221565b92505050949350505050565b60608315614231578290506142e6565b6000835111156142445782518084602001fd5b816040517f08c379a00000000000000000000000000000000000000000000000000000000081526004018080602001828103825283818151815260200191508051906020019080838360005b838110156142ab578082015181840152602081019050614290565b50505050905090810190601f1680156142d85780820380516001836020036101000a031916815260200191505b509250505060405180910390fd5b9392505050565b6040518060a00160405280600073ffffffffffffffffffffffffffffffffffffffff1681526020016000815260200160608152602001600015158152602001600081525090565b604051806040016040528060008152602001600073ffffffffffffffffffffffffffffffffffffffff1681525090565b828054600181600116156101000203166002900490600052602060002090601f01602090048101928261439a57600085556143e1565b82601f106143b357805160ff19168380011785556143e1565b828001600101855582156143e1579182015b828111156143e05782518255916020019190600101906143c5565b5b5090506143ee91906143f2565b5090565b5b8082111561440b5760008160009055506001016143f3565b509056fe456e756d657261626c655365743a20696e646578206f7574206f6620626f756e64734552433732313a207472616e7366657220746f206e6f6e20455243373231526563656976657220696d706c656d656e7465724552433732313a207472616e7366657220746f20746865207a65726f2061646472657373416464726573733a20696e73756666696369656e742062616c616e636520666f722063616c6c4552433732313a206f70657261746f7220717565727920666f72206e6f6e6578697374656e7420746f6b656e4552433732313a20617070726f76652063616c6c6572206973206e6f74206f776e6572206e6f7220617070726f76656420666f7220616c6c4552433732313a2062616c616e636520717565727920666f7220746865207a65726f20616464726573734552433732313a206f776e657220717565727920666f72206e6f6e6578697374656e7420746f6b656e456e756d657261626c654d61703a20696e646578206f7574206f6620626f756e64734552433732313a20617070726f76656420717565727920666f72206e6f6e6578697374656e7420746f6b656e4552433732314d657461646174613a2055524920736574206f66206e6f6e6578697374656e7420746f6b656e4552433732313a207472616e73666572206f6620746f6b656e2074686174206973206e6f74206f776e4552433732314d657461646174613a2055524920717565727920666f72206e6f6e6578697374656e7420746f6b656e4552433732313a20617070726f76616c20746f2063757272656e74206f776e65724552433732313a207472616e736665722063616c6c6572206973206e6f74206f776e6572206e6f7220617070726f766564a264697066735822122092331130fef2ab660343bfa8d3d478163a31efbed6f674c11faa42ba5450247164736f6c63430007040033",
  "immutableReferences": {},
  "source": "pragma solidity ^0.7.4;\n\nimport \"@openzeppelin/contracts/token/ERC721/ERC721.sol\";\nimport \"@openzeppelin/contracts/math/SafeMath.sol\";\n\ncontract LoanAuction is ERC721 {\n    \n  using SafeMath for uint256;  \n\n  mapping(uint256 => LoanItem) private _loanItems; \n  address public owner;   //owner\n  \n  //variables that are dynamic or change\n  uint256 public _tokenIds;  //Unique Image ID that are tokenized\n  uint256 public _loanItemIds; //Unique ID up images for sale but not tokenized\n  bool public canceled;\n  mapping(uint256=>mapping(address => uint256)) public fundsByBidder; //map tokenid to fundsByBidder\n  mapping(uint256=>bidding) public bid;  //mapping tokenid to bidding\n  bool auctionstarted = false;  //to check if auction started\n  bool firsttime = false;  //to mart first successfull bid\n\n   //Events\n    event LogBid(address bidder, uint bid, address highestBidder, uint highestBid, uint highestBindingBid);   \n    event LogWithdrawal(address withdrawer, address withdrawalAccount, uint amount);\n    event LogCanceled();\n\n  //Art Item \n  struct LoanItem {\n        address payable seller; //address of seller\n        uint256 minbid; //minimum price by artist\n        string tokenURI;  //IPFS URL\n        bool exists;    //token by id exists or not\n        uint bidIncrement; //incremention of bid\n    }\n    \n    struct bidding{\n     uint highestBindingBid; //highestBindingBid of the tokenid\n     address payable highestBidder;\n    }\n\n\n  constructor() public ERC721(\"DART\", \"ART\")  //Initializing ERC721 \n  {   \n    owner=msg.sender;\n  }\n  \n   //modifiers\n  \n  modifier loanItemExist(uint256 id) {   //check if item exists\n        require(_loanItems[id].exists, \"Not Found\");\n        _;\n    }\n    \n    modifier onlyNotOwner(uint256 id) {            //Check if owner is calling\n      LoanItem memory loanItem = _loanItems[id];   \n      if (msg.sender == loanItem.seller) revert();\n    _;\n     }\n\n    modifier onlyNotCanceled{        //Auction only if is not cancelled\n    if (canceled) revert();\n    _;\n     }\n    modifier onlyOwner(uint256 id)\n     {\n        LoanItem memory loanItem = _loanItems[id];   \n        if (msg.sender != loanItem.seller) revert();\n         _;\n     }\n     \n    modifier minbid(uint256 id)\n    {\n        LoanItem memory loanItem = _loanItems[id];\n        if(msg.value<loanItem.minbid) revert();\n        _;\n    }\n\n  function addLoanItem(uint256 price, string memory tokenURI, uint _bidincrement) public {\n        require(price >= 0, \"Price cannot be lesss than 0\");\n\n        _loanItemIds++;\n        _loanItems[_loanItemIds] = LoanItem(msg.sender, price, tokenURI, true, _bidincrement );\n    }\n\n  function getLoanItem(uint256 id)   //get Loan item info\n        public\n        view\n        loanItemExist(id)\n        returns (\n            uint256,\n            uint256,\n            string memory,\n            uint256\n        )\n    {\n        LoanItem memory loanItem = _loanItems[id];\n        bidding memory bid = bid[id]; \n        return (id, loanItem.minbid, loanItem.tokenURI, bid.highestBindingBid);\n    }\n    \n    //auction functions : \n    \n    //Cancel auction\n    function cancelAuction(uint256 id) public payable\n    onlyOwner(id)\n    onlyNotCanceled()\n    returns (bool success)\n   {\n    canceled = true;\n    \n    if(auctionstarted==true)  //mint token if auctionstarted\n    {\n    LoanItem memory loanItem = _loanItems[id];   \n    bidding storage bid = bid[id]; \n    _tokenIds++; \n    _safeMint(msg.sender, _tokenIds);\n    _setTokenURI(_tokenIds, loanItem.tokenURI);\n     // the auction's owner should be allowed to withdraw the highestBindingBid\n    \n    if (bid.highestBindingBid == 0) revert();\n    fundsByBidder[id][bid.highestBidder] -= bid.highestBindingBid;\n    // send the funds\n    if (!msg.sender.send(bid.highestBindingBid)) revert();\n        } \n    \n    LogCanceled();\n    return true;\n   }\n   \n   function placeBid(uint256 id) public\n    payable\n    onlyNotCanceled\n    onlyNotOwner(id)\n    minbid(id)\n    \n    returns (bool success)\n{\n    // reject payments of 0 ETH\n    if (msg.value == 0) revert();\n    \n    // calculate the user's total bid based on the current amount they've sent to the contract\n    // plus whatever has been sent with this transaction\n    bidding storage bid = bid[id]; \n    auctionstarted = true;\n    LoanItem memory loanItem = _loanItems[id];  \n\n    uint newBid = fundsByBidder[id][msg.sender] + msg.value;\n    \n\n    // if the user isn't even willing to overbid the highest binding bid, there's nothing for us\n    // to do except revert the transaction.\n    if (newBid <= bid.highestBindingBid) revert();\n\n    // grab the previous highest bid (before updating fundsByBidder, in case msg.sender is the\n    // highestBidder and is just increasing their maximum bid).\n    uint highestBid = fundsByBidder[id][bid.highestBidder];\n\n    fundsByBidder[id][msg.sender] = newBid;\n\n    if (newBid <= highestBid) {\n        // if the user has overbid the highestBindingBid but not the highestBid, we simply\n        // increase the highestBindingBid and leave highestBidder alone.\n\n        // note that this case is impossible if msg.sender == highestBidder because you can never\n        // bid less ETH than you already have.\n        if(newBid+loanItem.bidIncrement> highestBid)\n        {\n            bid.highestBindingBid = highestBid;\n        }\n        else\n        {\n            bid.highestBindingBid = newBid+loanItem.bidIncrement;\n        }\n    } else {\n        // if msg.sender is already the highest bidder, they must simply be wanting to raise\n        // their maximum bid, in which case we shouldn't increase the highestBindingBid.\n\n        // if the user is NOT highestBidder, and has overbid highestBid completely, we set them\n        // as the new highestBidder and recalculate highestBindingBid.\n\n        if (msg.sender != bid.highestBidder) {\n            bid.highestBidder = msg.sender;\n        if(newBid+loanItem.bidIncrement> highestBid)\n        {   if(firsttime==false)\n            bid.highestBindingBid = highestBid;\n            else\n            {bid.highestBindingBid = loanItem.minbid + loanItem.bidIncrement;\n            firsttime=true;\n            }\n        }\n        else\n        {\n            bid.highestBindingBid = newBid+loanItem.bidIncrement;\n        }\n        }\n        highestBid = newBid;\n    }\n\n    LogBid(msg.sender, newBid, bid.highestBidder, highestBid, bid.highestBindingBid);\n    return true;\n    }\n    \n    function withdraw(uint256 id) public payable onlyNotOwner(id)\n    returns (bool success) \n{   \n    require(canceled==true);\n    require(auctionstarted==true);\n    address payable withdrawalAccount;\n    uint withdrawalAmount;\n    bidding storage bid = bid[id]; \n    \n        if (msg.sender == bid.highestBidder) {\n            // the highest bidder should only be allowed to withdraw the difference between their\n            // highest bid and the highestBindingBid\n            withdrawalAccount = bid.highestBidder;\n            withdrawalAmount = fundsByBidder[id][bid.highestBidder];\n        }\n        else {\n            // anyone who participated but did not win the auction should be allowed to withdraw\n            // the full amount of their funds\n            withdrawalAccount = msg.sender;\n            withdrawalAmount = fundsByBidder[id][withdrawalAccount];\n        }\n\n    if (withdrawalAmount == 0) revert();\n\n    fundsByBidder[id][withdrawalAccount] -= withdrawalAmount;\n\n    // send the funds\n    if (!msg.sender.send(withdrawalAmount)) revert();\n\n    LogWithdrawal(msg.sender, withdrawalAccount, withdrawalAmount);\n\n    return true;\n}\n        \n}",
  "sourcePath": "/Users/pascal/Documents/Code Startup/P2P_Lending_Marketplace/src/contracts/LoanAuction.sol",
  "compiler": {
    "name": "solc",
    "version": "0.7.4+commit.3f05b770.Emscripten.clang"
  },
  "schemaVersion": "3.3.3",
  "updatedAt": "2021-03-15T10:44:57.332Z",
  "devdoc": {
    "kind": "dev",
    "methods": {
      "approve(address,uint256)": {
        "details": "See {IERC721-approve}."
      },
      "balanceOf(address)": {
        "details": "See {IERC721-balanceOf}."
      },
      "baseURI()": {
        "details": "Returns the base URI set via {_setBaseURI}. This will be automatically added as a prefix in {tokenURI} to each token's URI, or to the token ID if no specific URI is set for that token ID."
      },
      "getApproved(uint256)": {
        "details": "See {IERC721-getApproved}."
      },
      "isApprovedForAll(address,address)": {
        "details": "See {IERC721-isApprovedForAll}."
      },
      "name()": {
        "details": "See {IERC721Metadata-name}."
      },
      "ownerOf(uint256)": {
        "details": "See {IERC721-ownerOf}."
      },
      "safeTransferFrom(address,address,uint256)": {
        "details": "See {IERC721-safeTransferFrom}."
      },
      "safeTransferFrom(address,address,uint256,bytes)": {
        "details": "See {IERC721-safeTransferFrom}."
      },
      "setApprovalForAll(address,bool)": {
        "details": "See {IERC721-setApprovalForAll}."
      },
      "supportsInterface(bytes4)": {
        "details": "See {IERC165-supportsInterface}. Time complexity O(1), guaranteed to always use less than 30 000 gas."
      },
      "symbol()": {
        "details": "See {IERC721Metadata-symbol}."
      },
      "tokenByIndex(uint256)": {
        "details": "See {IERC721Enumerable-tokenByIndex}."
      },
      "tokenOfOwnerByIndex(address,uint256)": {
        "details": "See {IERC721Enumerable-tokenOfOwnerByIndex}."
      },
      "tokenURI(uint256)": {
        "details": "See {IERC721Metadata-tokenURI}."
      },
      "totalSupply()": {
        "details": "See {IERC721Enumerable-totalSupply}."
      },
      "transferFrom(address,address,uint256)": {
        "details": "See {IERC721-transferFrom}."
      }
    },
    "version": 1
  },
  "userdoc": {
    "kind": "user",
    "methods": {},
    "version": 1
  }
}